{
  "address": "0xCf7Ed3AccA5a467e9e704C703E8D87F634fB0Fc9",
  "abi": [
    {
      "inputs": [
        {
          "internalType": "address",
          "name": "vrfCoordinatorV2",
          "type": "address"
        },
        {
          "internalType": "uint256",
          "name": "entranceFee",
          "type": "uint256"
        },
        {
          "internalType": "bytes32",
          "name": "gasLane",
          "type": "bytes32"
        },
        {
          "internalType": "uint64",
          "name": "subscriptionId",
          "type": "uint64"
        },
        {
          "internalType": "uint32",
          "name": "callbackGasLimit",
          "type": "uint32"
        },
        {
          "internalType": "uint256",
          "name": "interval",
          "type": "uint256"
        }
      ],
      "stateMutability": "nonpayable",
      "type": "constructor"
    },
    {
      "inputs": [],
      "name": "Lottery__NotEnoughEth",
      "type": "error"
    },
    {
      "inputs": [],
      "name": "Lottery__NotOpen",
      "type": "error"
    },
    {
      "inputs": [],
      "name": "Lottery__TransferFailed",
      "type": "error"
    },
    {
      "inputs": [
        {
          "internalType": "uint256",
          "name": "currentBalance",
          "type": "uint256"
        },
        {
          "internalType": "uint256",
          "name": "numPlayers",
          "type": "uint256"
        },
        {
          "internalType": "uint256",
          "name": "raffleState",
          "type": "uint256"
        }
      ],
      "name": "Lottery__UpkeepNotNeeded",
      "type": "error"
    },
    {
      "inputs": [
        {
          "internalType": "address",
          "name": "have",
          "type": "address"
        },
        {
          "internalType": "address",
          "name": "want",
          "type": "address"
        }
      ],
      "name": "OnlyCoordinatorCanFulfill",
      "type": "error"
    },
    {
      "inputs": [],
      "name": "OnlySimulatedBackend",
      "type": "error"
    },
    {
      "anonymous": false,
      "inputs": [
        {
          "indexed": true,
          "internalType": "address",
          "name": "player",
          "type": "address"
        }
      ],
      "name": "LotteryEnter",
      "type": "event"
    },
    {
      "anonymous": false,
      "inputs": [
        {
          "indexed": true,
          "internalType": "uint256",
          "name": "requestId",
          "type": "uint256"
        }
      ],
      "name": "RequestedLotteryWinner",
      "type": "event"
    },
    {
      "anonymous": false,
      "inputs": [
        {
          "indexed": true,
          "internalType": "address",
          "name": "winner",
          "type": "address"
        }
      ],
      "name": "WinnerPicked",
      "type": "event"
    },
    {
      "inputs": [
        {
          "internalType": "bytes",
          "name": "",
          "type": "bytes"
        }
      ],
      "name": "checkUpkeep",
      "outputs": [
        {
          "internalType": "bool",
          "name": "upkeepNeeded",
          "type": "bool"
        },
        {
          "internalType": "bytes",
          "name": "",
          "type": "bytes"
        }
      ],
      "stateMutability": "view",
      "type": "function"
    },
    {
      "inputs": [],
      "name": "enterLottery",
      "outputs": [],
      "stateMutability": "payable",
      "type": "function"
    },
    {
      "inputs": [],
      "name": "getEntranceFee",
      "outputs": [
        {
          "internalType": "uint256",
          "name": "",
          "type": "uint256"
        }
      ],
      "stateMutability": "view",
      "type": "function"
    },
    {
      "inputs": [],
      "name": "getInterval",
      "outputs": [
        {
          "internalType": "uint256",
          "name": "",
          "type": "uint256"
        }
      ],
      "stateMutability": "view",
      "type": "function"
    },
    {
      "inputs": [],
      "name": "getLatestTimeStamp",
      "outputs": [
        {
          "internalType": "uint256",
          "name": "",
          "type": "uint256"
        }
      ],
      "stateMutability": "view",
      "type": "function"
    },
    {
      "inputs": [],
      "name": "getLotteryState",
      "outputs": [
        {
          "internalType": "enum Lottery.LotteryState",
          "name": "",
          "type": "uint8"
        }
      ],
      "stateMutability": "view",
      "type": "function"
    },
    {
      "inputs": [],
      "name": "getNumWords",
      "outputs": [
        {
          "internalType": "uint32",
          "name": "",
          "type": "uint32"
        }
      ],
      "stateMutability": "pure",
      "type": "function"
    },
    {
      "inputs": [],
      "name": "getNumberOfPlayers",
      "outputs": [
        {
          "internalType": "uint256",
          "name": "",
          "type": "uint256"
        }
      ],
      "stateMutability": "view",
      "type": "function"
    },
    {
      "inputs": [
        {
          "internalType": "uint256",
          "name": "index",
          "type": "uint256"
        }
      ],
      "name": "getPlayer",
      "outputs": [
        {
          "internalType": "address",
          "name": "",
          "type": "address"
        }
      ],
      "stateMutability": "view",
      "type": "function"
    },
    {
      "inputs": [],
      "name": "getRecentWinner",
      "outputs": [
        {
          "internalType": "address",
          "name": "",
          "type": "address"
        }
      ],
      "stateMutability": "view",
      "type": "function"
    },
    {
      "inputs": [],
      "name": "getRequestComfirmation",
      "outputs": [
        {
          "internalType": "uint16",
          "name": "",
          "type": "uint16"
        }
      ],
      "stateMutability": "pure",
      "type": "function"
    },
    {
      "inputs": [
        {
          "internalType": "bytes",
          "name": "",
          "type": "bytes"
        }
      ],
      "name": "performUpkeep",
      "outputs": [],
      "stateMutability": "nonpayable",
      "type": "function"
    },
    {
      "inputs": [
        {
          "internalType": "uint256",
          "name": "requestId",
          "type": "uint256"
        },
        {
          "internalType": "uint256[]",
          "name": "randomWords",
          "type": "uint256[]"
        }
      ],
      "name": "rawFulfillRandomWords",
      "outputs": [],
      "stateMutability": "nonpayable",
      "type": "function"
    }
  ],
  "transactionHash": "0x32707fcdfa621bf04ec68e667f02c0b21171a76d9893081364d217a55e47d53a",
  "args": [
    "0x5FbDB2315678afecb367f032d93F642f64180aa3",
    "10000000000000000",
    "0x79d3d8832d904592c0bf9818b621522c988bb8b0c05cdc3b15aea1b6e8db0c15",
    "1",
    "500000",
    "30"
  ],
  "numDeployments": 1,
  "solcInputHash": "5666ac78bd2ebd5389ea0bdb412ebb24",
  "bytecode": "0x6101606040523480156200001257600080fd5b506040516200182e3803806200182e833981810160405281019062000038919062000294565b858073ffffffffffffffffffffffffffffffffffffffff1660808173ffffffffffffffffffffffffffffffffffffffff1681525050508461014081815250508573ffffffffffffffffffffffffffffffffffffffff1660a08173ffffffffffffffffffffffffffffffffffffffff16815250508360c081815250508267ffffffffffffffff1660e08167ffffffffffffffff16815250508163ffffffff166101008163ffffffff16815250506000600160146101000a81548160ff021916908360018111156200010d576200010c62000330565b5b0217905550426002819055508061012081815250505050505050506200035f565b600080fd5b600073ffffffffffffffffffffffffffffffffffffffff82169050919050565b6000620001608262000133565b9050919050565b620001728162000153565b81146200017e57600080fd5b50565b600081519050620001928162000167565b92915050565b6000819050919050565b620001ad8162000198565b8114620001b957600080fd5b50565b600081519050620001cd81620001a2565b92915050565b6000819050919050565b620001e881620001d3565b8114620001f457600080fd5b50565b6000815190506200020881620001dd565b92915050565b600067ffffffffffffffff82169050919050565b6200022d816200020e565b81146200023957600080fd5b50565b6000815190506200024d8162000222565b92915050565b600063ffffffff82169050919050565b6200026e8162000253565b81146200027a57600080fd5b50565b6000815190506200028e8162000263565b92915050565b60008060008060008060c08789031215620002b457620002b36200012e565b5b6000620002c489828a0162000181565b9650506020620002d789828a01620001bc565b9550506040620002ea89828a01620001f7565b9450506060620002fd89828a016200023c565b93505060806200031089828a016200027d565b92505060a06200032389828a01620001bc565b9150509295509295509295565b7f4e487b7100000000000000000000000000000000000000000000000000000000600052602160045260246000fd5b60805160a05160c05160e05161010051610120516101405161145f620003cf600039600081816102fa015261070201526000818161066501526106d30152600061051f015260006104fc015260006104db0152600061049f0152600081816103200152610374015261145f6000f3fe6080604052600436106100c25760003560e01c80636b68c03c1161007f578063ba5be7cb11610059578063ba5be7cb14610259578063c1af578514610284578063e55ae4e81461028e578063fd6673f5146102cb576100c2565b80636b68c03c146101c55780636e04ff0d146101f057806391ad27b41461022e576100c2565b806309bc33a7146100c75780631fe543e3146100f2578063320229eb1461011b5780634585e33b14610146578063473f1ddc1461016f57806353a2c19a1461019a575b600080fd5b3480156100d357600080fd5b506100dc6102f6565b6040516100e99190610bb3565b60405180910390f35b3480156100fe57600080fd5b5061011960048036038101906101149190610d67565b61031e565b005b34801561012757600080fd5b506101306103de565b60405161013d9190610bb3565b60405180910390f35b34801561015257600080fd5b5061016d60048036038101906101689190610e1e565b6103e8565b005b34801561017b57600080fd5b506101846105d8565b6040516101919190610eac565b60405180910390f35b3480156101a657600080fd5b506101af610602565b6040516101bc9190610ee6565b60405180910390f35b3480156101d157600080fd5b506101da61060b565b6040516101e79190610f78565b60405180910390f35b3480156101fc57600080fd5b5061021760048036038101906102129190611048565b610622565b60405161022592919061112b565b60405180910390f35b34801561023a57600080fd5b506102436106cf565b6040516102509190610bb3565b60405180910390f35b34801561026557600080fd5b5061026e6106f7565b60405161027b9190611178565b60405180910390f35b61028c610700565b005b34801561029a57600080fd5b506102b560048036038101906102b09190611193565b61086f565b6040516102c29190610eac565b60405180910390f35b3480156102d757600080fd5b506102e06108b6565b6040516102ed9190610bb3565b60405180910390f35b60007f0000000000000000000000000000000000000000000000000000000000000000905090565b7f000000000000000000000000000000000000000000000000000000000000000073ffffffffffffffffffffffffffffffffffffffff163373ffffffffffffffffffffffffffffffffffffffff16146103d057337f00000000000000000000000000000000000000000000000000000000000000006040517f1cf993f40000000000000000000000000000000000000000000000000000000081526004016103c79291906111c0565b60405180910390fd5b6103da82826108c2565b5050565b6000600254905090565b600061040260405180602001604052806000815250610622565b509050806104715747600080549050600160149054906101000a900460ff16600181111561043357610432610f01565b5b6040517f6e195f25000000000000000000000000000000000000000000000000000000008152600401610468939291906111e9565b60405180910390fd5b60018060146101000a81548160ff0219169083600181111561049657610495610f01565b5b021790555060007f000000000000000000000000000000000000000000000000000000000000000073ffffffffffffffffffffffffffffffffffffffff16635d3b1d307f00000000000000000000000000000000000000000000000000000000000000007f000000000000000000000000000000000000000000000000000000000000000060037f000000000000000000000000000000000000000000000000000000000000000060016040518663ffffffff1660e01b815260040161056095949392919061125c565b6020604051808303816000875af115801561057f573d6000803e3d6000fd5b505050506040513d601f19601f820116820180604052508101906105a391906112c4565b9050807febf56642252004c18a776f30d528e7a0ce8c5db14b6596fb6550f630c8a24c6c60405160405180910390a250505050565b6000600160009054906101000a900473ffffffffffffffffffffffffffffffffffffffff16905090565b60006001905090565b6000600160149054906101000a900460ff16905090565b600060606000600160149054906101000a900460ff16600181111561064a57610649610f01565b5b6000600181111561065e5761065d610f01565b5b14905060007f0000000000000000000000000000000000000000000000000000000000000000600254426106929190611320565b119050600080600080549050119050600080471190508380156106b25750825b80156106bb5750815b80156106c45750805b955050505050915091565b60007f0000000000000000000000000000000000000000000000000000000000000000905090565b60006003905090565b7f000000000000000000000000000000000000000000000000000000000000000034101561075a576040517f0b531f8800000000000000000000000000000000000000000000000000000000815260040160405180910390fd5b6000600181111561076e5761076d610f01565b5b600160149054906101000a900460ff1660018111156107905761078f610f01565b5b146107c7576040517fe76be6fc00000000000000000000000000000000000000000000000000000000815260040160405180910390fd5b6000339080600181540180825580915050600190039060005260206000200160009091909190916101000a81548173ffffffffffffffffffffffffffffffffffffffff021916908373ffffffffffffffffffffffffffffffffffffffff1602179055503373ffffffffffffffffffffffffffffffffffffffff167f1d64fb5ba9f2548c5b98468d58f25b87b9e866afee0122e92d9fe722bf85076c60405160405180910390a2565b600080828154811061088457610883611354565b5b9060005260206000200160009054906101000a900473ffffffffffffffffffffffffffffffffffffffff169050919050565b60008080549050905090565b60008080549050826000815181106108dd576108dc611354565b5b60200260200101516108ef91906113b2565b9050600080828154811061090657610905611354565b5b9060005260206000200160009054906101000a900473ffffffffffffffffffffffffffffffffffffffff16905080600160006101000a81548173ffffffffffffffffffffffffffffffffffffffff021916908373ffffffffffffffffffffffffffffffffffffffff1602179055506000600160146101000a81548160ff0219169083600181111561099a57610999610f01565b5b021790555042600281905550600067ffffffffffffffff8111156109c1576109c0610c24565b5b6040519080825280602002602001820160405280156109ef5781602001602082028036833780820191505090505b5060009080519060200190610a05929190610af3565b5060008173ffffffffffffffffffffffffffffffffffffffff1647604051610a2c90611414565b60006040518083038185875af1925050503d8060008114610a69576040519150601f19603f3d011682016040523d82523d6000602084013e610a6e565b606091505b5050905080610aa9576040517f1c94012000000000000000000000000000000000000000000000000000000000815260040160405180910390fd5b8173ffffffffffffffffffffffffffffffffffffffff167f5b690ec4a06fe979403046eaeea5b3ce38524683c3001f662c8b5a829632f7df60405160405180910390a25050505050565b828054828255906000526020600020908101928215610b6c579160200282015b82811115610b6b5782518260006101000a81548173ffffffffffffffffffffffffffffffffffffffff021916908373ffffffffffffffffffffffffffffffffffffffff16021790555091602001919060010190610b13565b5b509050610b799190610b7d565b5090565b5b80821115610b96576000816000905550600101610b7e565b5090565b6000819050919050565b610bad81610b9a565b82525050565b6000602082019050610bc86000830184610ba4565b92915050565b6000604051905090565b600080fd5b600080fd5b610beb81610b9a565b8114610bf657600080fd5b50565b600081359050610c0881610be2565b92915050565b600080fd5b6000601f19601f8301169050919050565b7f4e487b7100000000000000000000000000000000000000000000000000000000600052604160045260246000fd5b610c5c82610c13565b810181811067ffffffffffffffff82111715610c7b57610c7a610c24565b5b80604052505050565b6000610c8e610bce565b9050610c9a8282610c53565b919050565b600067ffffffffffffffff821115610cba57610cb9610c24565b5b602082029050602081019050919050565b600080fd5b6000610ce3610cde84610c9f565b610c84565b90508083825260208201905060208402830185811115610d0657610d05610ccb565b5b835b81811015610d2f5780610d1b8882610bf9565b845260208401935050602081019050610d08565b5050509392505050565b600082601f830112610d4e57610d4d610c0e565b5b8135610d5e848260208601610cd0565b91505092915050565b60008060408385031215610d7e57610d7d610bd8565b5b6000610d8c85828601610bf9565b925050602083013567ffffffffffffffff811115610dad57610dac610bdd565b5b610db985828601610d39565b9150509250929050565b600080fd5b60008083601f840112610dde57610ddd610c0e565b5b8235905067ffffffffffffffff811115610dfb57610dfa610dc3565b5b602083019150836001820283011115610e1757610e16610ccb565b5b9250929050565b60008060208385031215610e3557610e34610bd8565b5b600083013567ffffffffffffffff811115610e5357610e52610bdd565b5b610e5f85828601610dc8565b92509250509250929050565b600073ffffffffffffffffffffffffffffffffffffffff82169050919050565b6000610e9682610e6b565b9050919050565b610ea681610e8b565b82525050565b6000602082019050610ec16000830184610e9d565b92915050565b600063ffffffff82169050919050565b610ee081610ec7565b82525050565b6000602082019050610efb6000830184610ed7565b92915050565b7f4e487b7100000000000000000000000000000000000000000000000000000000600052602160045260246000fd5b60028110610f4157610f40610f01565b5b50565b6000819050610f5282610f30565b919050565b6000610f6282610f44565b9050919050565b610f7281610f57565b82525050565b6000602082019050610f8d6000830184610f69565b92915050565b600080fd5b600067ffffffffffffffff821115610fb357610fb2610c24565b5b610fbc82610c13565b9050602081019050919050565b82818337600083830152505050565b6000610feb610fe684610f98565b610c84565b90508281526020810184848401111561100757611006610f93565b5b611012848285610fc9565b509392505050565b600082601f83011261102f5761102e610c0e565b5b813561103f848260208601610fd8565b91505092915050565b60006020828403121561105e5761105d610bd8565b5b600082013567ffffffffffffffff81111561107c5761107b610bdd565b5b6110888482850161101a565b91505092915050565b60008115159050919050565b6110a681611091565b82525050565b600081519050919050565b600082825260208201905092915050565b60005b838110156110e65780820151818401526020810190506110cb565b60008484015250505050565b60006110fd826110ac565b61110781856110b7565b93506111178185602086016110c8565b61112081610c13565b840191505092915050565b6000604082019050611140600083018561109d565b818103602083015261115281846110f2565b90509392505050565b600061ffff82169050919050565b6111728161115b565b82525050565b600060208201905061118d6000830184611169565b92915050565b6000602082840312156111a9576111a8610bd8565b5b60006111b784828501610bf9565b91505092915050565b60006040820190506111d56000830185610e9d565b6111e26020830184610e9d565b9392505050565b60006060820190506111fe6000830186610ba4565b61120b6020830185610ba4565b6112186040830184610ba4565b949350505050565b6000819050919050565b61123381611220565b82525050565b600067ffffffffffffffff82169050919050565b61125681611239565b82525050565b600060a082019050611271600083018861122a565b61127e602083018761124d565b61128b6040830186611169565b6112986060830185610ed7565b6112a56080830184610ed7565b9695505050505050565b6000815190506112be81610be2565b92915050565b6000602082840312156112da576112d9610bd8565b5b60006112e8848285016112af565b91505092915050565b7f4e487b7100000000000000000000000000000000000000000000000000000000600052601160045260246000fd5b600061132b82610b9a565b915061133683610b9a565b925082820390508181111561134e5761134d6112f1565b5b92915050565b7f4e487b7100000000000000000000000000000000000000000000000000000000600052603260045260246000fd5b7f4e487b7100000000000000000000000000000000000000000000000000000000600052601260045260246000fd5b60006113bd82610b9a565b91506113c883610b9a565b9250826113d8576113d7611383565b5b828206905092915050565b600081905092915050565b50565b60006113fe6000836113e3565b9150611409826113ee565b600082019050919050565b600061141f826113f1565b915081905091905056fea2646970667358221220a9860ac294081196c0d9d98efe4809828b4d168263d617050c1fcdd84dffc05564736f6c63430008110033",
  "devdoc": {
    "author": "Ayomide",
    "details": "this implement chalink vrf v2 and chainlink AutomationCompatible",
    "kind": "dev",
    "methods": {},
    "title": "A sample Lottery",
    "version": 1
  },
  "userdoc": {
    "errors": {
      "Lottery__NotEnoughEth()": [
        {
          "notice": "Event data is stored out sid e the smart contract, so it cost zero gas to store and can be called later in the future  virtual keywords means it is expected to be overriden"
        }
      ]
    },
    "events": {
      "LotteryEnter(address)": {
        "notice": "Event variable "
      }
    },
    "kind": "user",
    "methods": {
      "checkUpkeep(bytes)": {
        "notice": "the following should be true for perfermUpkeep function can trigger 1. Lottery must be in open state LotteryState.OPEN 2. Our time interval should have passed 3. The lottery should have atleast one player, and have some Eth 4. Our subscription is funded with LINK"
      },
      "constructor": {
        "notice": "function "
      },
      "getEntranceFee()": {
        "notice": "View / Pure "
      }
    },
    "version": 1
  },
  "storageLayout": {
    "storage": [
      {
        "astId": 1201,
        "contract": "contracts/Lottery.sol:Lottery",
        "label": "s_players",
        "offset": 0,
        "slot": "0",
        "type": "t_array(t_address_payable)dyn_storage"
      },
      {
        "astId": 1219,
        "contract": "contracts/Lottery.sol:Lottery",
        "label": "s_recentWinner",
        "offset": 0,
        "slot": "1",
        "type": "t_address_payable"
      },
      {
        "astId": 1222,
        "contract": "contracts/Lottery.sol:Lottery",
        "label": "s_lotteryState",
        "offset": 20,
        "slot": "1",
        "type": "t_enum(LotteryState)1197"
      },
      {
        "astId": 1224,
        "contract": "contracts/Lottery.sol:Lottery",
        "label": "s_lastTimeStamp",
        "offset": 0,
        "slot": "2",
        "type": "t_uint256"
      }
    ],
    "types": {
      "t_address_payable": {
        "encoding": "inplace",
        "label": "address payable",
        "numberOfBytes": "20"
      },
      "t_array(t_address_payable)dyn_storage": {
        "base": "t_address_payable",
        "encoding": "dynamic_array",
        "label": "address payable[]",
        "numberOfBytes": "32"
      },
      "t_enum(LotteryState)1197": {
        "encoding": "inplace",
        "label": "enum Lottery.LotteryState",
        "numberOfBytes": "1"
      },
      "t_uint256": {
        "encoding": "inplace",
        "label": "uint256",
        "numberOfBytes": "32"
      }
    }
  }
}